{
  "_format": "hh-sol-artifact-1",
  "contractName": "AcademicCredential",
  "sourceName": "contracts/AcademicCredential.sol",
  "abi": [
    {
      "inputs": [
        {
          "internalType": "string",
          "name": "",
          "type": "string"
        }
      ],
      "name": "credentials",
      "outputs": [
        {
          "internalType": "string",
          "name": "studentName",
          "type": "string"
        },
        {
          "internalType": "string",
          "name": "institution",
          "type": "string"
        },
        {
          "internalType": "string",
          "name": "course",
          "type": "string"
        },
        {
          "internalType": "string",
          "name": "hash",
          "type": "string"
        },
        {
          "internalType": "bool",
          "name": "exists",
          "type": "bool"
        }
      ],
      "stateMutability": "view",
      "type": "function"
    },
    {
      "inputs": [
        {
          "internalType": "string",
          "name": "id",
          "type": "string"
        },
        {
          "internalType": "string",
          "name": "studentName",
          "type": "string"
        },
        {
          "internalType": "string",
          "name": "institution",
          "type": "string"
        },
        {
          "internalType": "string",
          "name": "course",
          "type": "string"
        },
        {
          "internalType": "string",
          "name": "hash",
          "type": "string"
        }
      ],
      "name": "issueCredential",
      "outputs": [],
      "stateMutability": "nonpayable",
      "type": "function"
    },
    {
      "inputs": [
        {
          "internalType": "string",
          "name": "id",
          "type": "string"
        }
      ],
      "name": "verifyCredential",
      "outputs": [
        {
          "internalType": "string",
          "name": "",
          "type": "string"
        },
        {
          "internalType": "string",
          "name": "",
          "type": "string"
        },
        {
          "internalType": "string",
          "name": "",
          "type": "string"
        },
        {
          "internalType": "string",
          "name": "",
          "type": "string"
        }
      ],
      "stateMutability": "view",
      "type": "function"
    }
  ],
  "bytecode": "0x6080604052348015600f57600080fd5b50610f7d8061001f6000396000f3fe608060405234801561001057600080fd5b50600436106100415760003560e01c8063a311467c14610046578063bb3670ab14610062578063bf4af9b114610095575b600080fd5b610060600480360381019061005b91906108e6565b6100c9565b005b61007c600480360381019061007791906109ed565b610202565b60405161008c9493929190610ab5565b60405180910390f35b6100af60048036038101906100aa91906109ed565b610513565b6040516100c0959493929190610b31565b60405180910390f35b6000856040516100d99190610bdc565b908152602001604051809103902060040160009054906101000a900460ff1615610138576040517f08c379a000000000000000000000000000000000000000000000000000000000815260040161012f90610c3f565b60405180910390fd5b6040518060a00160405280858152602001848152602001838152602001828152602001600115158152506000866040516101729190610bdc565b908152602001604051809103902060008201518160000190816101959190610e75565b5060208201518160010190816101ab9190610e75565b5060408201518160020190816101c19190610e75565b5060608201518160030190816101d79190610e75565b5060808201518160040160006101000a81548160ff0219169083151502179055509050505050505050565b606080606080600080866040516102199190610bdc565b90815260200160405180910390206040518060a001604052908160008201805461024290610c8e565b80601f016020809104026020016040519081016040528092919081815260200182805461026e90610c8e565b80156102bb5780601f10610290576101008083540402835291602001916102bb565b820191906000526020600020905b81548152906001019060200180831161029e57829003601f168201915b505050505081526020016001820180546102d490610c8e565b80601f016020809104026020016040519081016040528092919081815260200182805461030090610c8e565b801561034d5780601f106103225761010080835404028352916020019161034d565b820191906000526020600020905b81548152906001019060200180831161033057829003601f168201915b5050505050815260200160028201805461036690610c8e565b80601f016020809104026020016040519081016040528092919081815260200182805461039290610c8e565b80156103df5780601f106103b4576101008083540402835291602001916103df565b820191906000526020600020905b8154815290600101906020018083116103c257829003601f168201915b505050505081526020016003820180546103f890610c8e565b80601f016020809104026020016040519081016040528092919081815260200182805461042490610c8e565b80156104715780601f1061044657610100808354040283529160200191610471565b820191906000526020600020905b81548152906001019060200180831161045457829003601f168201915b505050505081526020016004820160009054906101000a900460ff161515151581525050905080608001516104ee576040518060200160405280600081525060405180602001604052806000815250604051806020016040528060008152506040518060200160405280600081525094509450945094505061050c565b80600001518160200151826040015183606001519450945094509450505b9193509193565b60008180516020810182018051848252602083016020850120818352809550505050505060009150905080600001805461054c90610c8e565b80601f016020809104026020016040519081016040528092919081815260200182805461057890610c8e565b80156105c55780601f1061059a576101008083540402835291602001916105c5565b820191906000526020600020905b8154815290600101906020018083116105a857829003601f168201915b5050505050908060010180546105da90610c8e565b80601f016020809104026020016040519081016040528092919081815260200182805461060690610c8e565b80156106535780601f1061062857610100808354040283529160200191610653565b820191906000526020600020905b81548152906001019060200180831161063657829003601f168201915b50505050509080600201805461066890610c8e565b80601f016020809104026020016040519081016040528092919081815260200182805461069490610c8e565b80156106e15780601f106106b6576101008083540402835291602001916106e1565b820191906000526020600020905b8154815290600101906020018083116106c457829003601f168201915b5050505050908060030180546106f690610c8e565b80601f016020809104026020016040519081016040528092919081815260200182805461072290610c8e565b801561076f5780601f106107445761010080835404028352916020019161076f565b820191906000526020600020905b81548152906001019060200180831161075257829003601f168201915b5050505050908060040160009054906101000a900460ff16905085565b6000604051905090565b600080fd5b600080fd5b600080fd5b600080fd5b6000601f19601f8301169050919050565b7f4e487b7100000000000000000000000000000000000000000000000000000000600052604160045260246000fd5b6107f3826107aa565b810181811067ffffffffffffffff82111715610812576108116107bb565b5b80604052505050565b600061082561078c565b905061083182826107ea565b919050565b600067ffffffffffffffff821115610851576108506107bb565b5b61085a826107aa565b9050602081019050919050565b82818337600083830152505050565b600061088961088484610836565b61081b565b9050828152602081018484840111156108a5576108a46107a5565b5b6108b0848285610867565b509392505050565b600082601f8301126108cd576108cc6107a0565b5b81356108dd848260208601610876565b91505092915050565b600080600080600060a0868803121561090257610901610796565b5b600086013567ffffffffffffffff8111156109205761091f61079b565b5b61092c888289016108b8565b955050602086013567ffffffffffffffff81111561094d5761094c61079b565b5b610959888289016108b8565b945050604086013567ffffffffffffffff81111561097a5761097961079b565b5b610986888289016108b8565b935050606086013567ffffffffffffffff8111156109a7576109a661079b565b5b6109b3888289016108b8565b925050608086013567ffffffffffffffff8111156109d4576109d361079b565b5b6109e0888289016108b8565b9150509295509295909350565b600060208284031215610a0357610a02610796565b5b600082013567ffffffffffffffff811115610a2157610a2061079b565b5b610a2d848285016108b8565b91505092915050565b600081519050919050565b600082825260208201905092915050565b60005b83811015610a70578082015181840152602081019050610a55565b60008484015250505050565b6000610a8782610a36565b610a918185610a41565b9350610aa1818560208601610a52565b610aaa816107aa565b840191505092915050565b60006080820190508181036000830152610acf8187610a7c565b90508181036020830152610ae38186610a7c565b90508181036040830152610af78185610a7c565b90508181036060830152610b0b8184610a7c565b905095945050505050565b60008115159050919050565b610b2b81610b16565b82525050565b600060a0820190508181036000830152610b4b8188610a7c565b90508181036020830152610b5f8187610a7c565b90508181036040830152610b738186610a7c565b90508181036060830152610b878185610a7c565b9050610b966080830184610b22565b9695505050505050565b600081905092915050565b6000610bb682610a36565b610bc08185610ba0565b9350610bd0818560208601610a52565b80840191505092915050565b6000610be88284610bab565b915081905092915050565b7f416c726561647920657869737473000000000000000000000000000000000000600082015250565b6000610c29600e83610a41565b9150610c3482610bf3565b602082019050919050565b60006020820190508181036000830152610c5881610c1c565b9050919050565b7f4e487b7100000000000000000000000000000000000000000000000000000000600052602260045260246000fd5b60006002820490506001821680610ca657607f821691505b602082108103610cb957610cb8610c5f565b5b50919050565b60008190508160005260206000209050919050565b60006020601f8301049050919050565b600082821b905092915050565b600060088302610d217fffffffffffffffffffffffffffffffffffffffffffffffffffffffffffffffff82610ce4565b610d2b8683610ce4565b95508019841693508086168417925050509392505050565b6000819050919050565b6000819050919050565b6000610d72610d6d610d6884610d43565b610d4d565b610d43565b9050919050565b6000819050919050565b610d8c83610d57565b610da0610d9882610d79565b848454610cf1565b825550505050565b600090565b610db5610da8565b610dc0818484610d83565b505050565b5b81811015610de457610dd9600082610dad565b600181019050610dc6565b5050565b601f821115610e2957610dfa81610cbf565b610e0384610cd4565b81016020851015610e12578190505b610e26610e1e85610cd4565b830182610dc5565b50505b505050565b600082821c905092915050565b6000610e4c60001984600802610e2e565b1980831691505092915050565b6000610e658383610e3b565b9150826002028217905092915050565b610e7e82610a36565b67ffffffffffffffff811115610e9757610e966107bb565b5b610ea18254610c8e565b610eac828285610de8565b600060209050601f831160018114610edf5760008415610ecd578287015190505b610ed78582610e59565b865550610f3f565b601f198416610eed86610cbf565b60005b82811015610f1557848901518255600182019150602085019450602081019050610ef0565b86831015610f325784890151610f2e601f891682610e3b565b8355505b6001600288020188555050505b50505050505056fea26469706673582212207fc201e1ab2e42976e1121a73c8273b66eb18dca5b7ae72c4ee021dec453e24664736f6c634300081c0033",
  "linkReferences": {},
  "deployedLinkReferences": {}
}